:020000040800F2
:100000000050002079140008250F0008290F00086F
:100010002D0F0008310F0008350F00080000000008
:100020000000000000000000000000003D0F00087C
:10003000390F000800000000410F0008450F0008BC
:10004000BD140008BD140008BD140008BD1400084C
:10005000BD140008BD140008610F0008BD1400089D
:10006000BD140008BD140008BD140008BD1400082C
:10007000BD140008BD140008BD140008BD1400081C
:10008000BD140008BD140008BD140008BD1400080C
:10009000BD140008BD140008BD140008490F000875
:1000A000BD140008BD140008BD140008BD140008EC
:1000B000F10F00088D0F0008BD140008BD140008E2
:1000C000BD140008BD140008BD140008BD140008CC
:1000D000BD140008BD140008BD140008BD140008BC
:1000E000BD140008BD140008BD1400080000000085
:1000F0000000000000000000000000000000000000
:0C01000000000000000000005FF808F1A3
:10010C000FB400B583B004AA08CA0493019200206E
:10011C00191C00F089FB03B008BC04B01847C0469A
:10012C0070B5051C0C1C101C002A03D00E22835E1B
:10013C00013302D0002C14D11CE0828982239B0055
:10014C001A42F7D00668002909D0311C221C2B78E2
:10015C000B7001310135013A002AF8D136190660CD
:10016C0008E0287801350006001600F065FF013C18
:10017C00002CF6D170BC01BC0047000030B581B03A
:10018C00041C00F0A3FB051C201C291C0022FFF7FB
:10019C00C7FF0A2000F050FF281C01B030BC02BC85
:1001AC000847C046F0B55F4656464D464446F0B447
:1001BC00AFB002908A461E1C904600220492089210
:1001CC0000E0099E42461378002B09D0252B07D05E
:1001DC00444601342378002B03D0252B01D0F8E7BB
:1001EC0044464346E51A002D07D04046291C52468A
:1001FC00FFF796FF049A521904920023E356002B42
:10020C0000D1FEE20134A04600226B46B7331A70CF
:10021C000392059201235B42069300E01E1C4246AA
:10022C0012781206121693460123984400E00591A9
:10023C005B46203B582B00D930E29B00C74A9B58A9
:10024C009F46C74A08928FE16A46B7320023D356BD
:10025C00002BE4D120231370E1E70123039A1A4306
:10026C000392DCE7331D36680596002ED6DA72420F
:10027C0005921E1C0423039A1A430392CFE72B22E8
:10028C006B46B7331A70CAE7424613780122904482
:10029C001B061B162A2B06D09B461A1C303A092A21
:1002AC000DD900211AE0331D36680696002E04DAAB
:1002BC001E1C01235B420693B1E71E1CAFE7002115
:1002CC008B005B185B0099184246127812061216C6
:1002DC00934601239844303A092AF1D90029069112
:1002EC00A6DA012252420692A2E78023039A1A430D
:1002FC00039294E700215B46303B8A00521852006F
:10030C00991843461B781B061B169B4601229044EA
:10031C00303B092B8BD8EEE74023039A1A43039208
:10032C007DE742460023D3566C2B06D1012398441B
:10033C001023039A1A43039271E71023039A1A436A
:10034C0003926CE71023039A1A43039267E75B4608
:10035C00432B02D0039AD20610D500230C930D9395
:10036C003268029869463F310CAB00F0C9FA071CA1
:10037C00431C00D145E20436099606E0321D099271
:10038C0032686B463F331A70012700226B46B73335
:10039C001A703F236B4499462DE21023039A1A439B
:1003AC000392039BDB0603D5321D099234680BE0E4
:1003BC00039B5B0605D5321D099233681B041C1484
:1003CC0002E0331D09933468002C01DB0121ECE0C1
:1003DC0064422D226B46B7331A700121E5E0039A73
:1003EC00D20605D5331D09933368049A1A60E8E6E2
:1003FC00039B5B0606D5321D099233686A46128A46
:10040C001A80DEE6331D09933368049A1A60D8E625
:10041C001023039A1A430392039BDB0603D5321D68
:10042C000992346809E0039B5B0603D5321D0992DF
:10043C00348802E0331D099334680021B1E0321D89
:10044C00099234680223039A1A43039278239B4639
:10045C000221434A0892A4E0069C00226B46B73363
:10046C001A70331D09933668B146002E00D1BFE1D6
:10047C005A46532A02D0039BDB0643D54D460E95B4
:10048C0000230A930B93002C18DB002700250E9BEE
:10049C005A59002A1FD0029869463F310AAB00F026
:1004AC002FFA421C00D1ACE1C019A04213DC043578
:1004BC00844201D1271C0EE0071CE8E70AAB00932D
:1004CC00029800210EAA002300F040FA071C431CDE
:1004DC0000D196E10E95002F00D1EEE000250A9593
:1004EC000B956C4667340AAB00930298211C0EAA3C
:1004FC003B1C00F02BFA874200D082E1E555A14667
:10050C000795E0E0002C0CDB301C0021221C00F0D5
:10051C009DF9002800D1D3E0871BA74200DDCFE076
:10052C00CBE0301C00F0D2F9071C64E11023039AD5
:10053C001A430392039BDB0603D5321D09923468E0
:10054C0009E0039B5B0603D5321D0992348802E057
:10055C00331D09933468012123E000007C19000845
:10056C009C1B0008AC4A0892039BDB0603D5321D8A
:10057C000992346809E0039B5B0603D5321D09928E
:10058C00348802E0331D09933468039AD20707D5E7
:10059C00002C05D00223039A1A430392022100E097
:1005AC00022100226B46B7331A70069B002B03DB2B
:1005BC008023039A9A430392002C02D1069B002BB2
:1005CC0050D0012909D001290CD302293AD0069A1E
:1005DC000792924B9946192775E0092C1CD86D4649
:1005EC00673529E067226A44914601235B429944AE
:1005FC000723234030334A461370E408002CF4D10F
:10060C00039AD20743D5302B41D001235B42994446
:10061C0030234A4613703AE06D466735013D201C85
:10062C000A2100F00FFC30312970201C0A2100F047
:10063C00CDFB041C0928F1D8013DA946231C3033FD
:10064C002B7024E067236B4499460122524291445B
:10065C000F232340089A9B5C4A4613702409002CF4
:10066C0015D0F2E7002903D067236B4499460EE0BE
:10067C00039AD20703D467236B44994607E03021D1
:10068C006A463F322723D15466226A4491466B4610
:10069C0067334A469F1A069B079314E05A46002A72
:1006AC0000D1AEE069463F310A7000226B46B73389
:1006BC001A700996894601279DE00023079302E0F2
:1006CC00069F002207923E1C079B9F4200DA1E1CCD
:1006DC006B46B7331B781B061B16002B01D001365B
:1006EC0003E0039A920700D502368423039D1D4034
:1006FC0012D1059B9C1B002C0EDD102C07DD4848ED
:10070C0010215246FFF70CFD103C102CF7DC44482E
:10071C00211C5246FFF704FD6846B7300023C35630
:10072C00002B04D001215246FFF7FAFC0CE0039A8F
:10073C00920709D568463D30302303705B46437001
:10074C0002215246FFF7ECFC802D16D1059A941B22
:10075C00002C12DD102C0ADD314B1D1C1035281C11
:10076C0010215246FFF7DCFC103C102CF7DC2C4817
:10077C001030211C5246FFF7D3FC079BDC1B002CCE
:10078C0012DD102C0ADD264B1D1C1035281C1021E7
:10079C005246FFF7C5FC103C102CF7DC20481030FB
:1007AC00211C5246FFF7BCFC4846391C5246FFF749
:1007BC00B7FC039A520712D5059B9C1B002C0EDD2F
:1007CC00102C07DD164810215246FFF7A9FC103CEF
:1007DC00102CF7DC1248211C5246FFF7A1FC331CED
:1007EC00059A964200DA131C049AD2180492E8E493
:1007FC000C4B994606273E1E00DA00260022079273
:10080C006FE704982FB03CBC90469946A246AB4685
:10081C00F0BC02BC08470000B01B0008C41B000859
:10082C00E01A0008E01B000830B581B0041C0D1C58
:10083C00131C054A1068211C2A1CFFF7B3FC01B0DD
:10084C0030BC02BC084700001C000020032A844670
:10085C0030B4C9B2144627D91CF0030325D11D4668
:10086C001A462B0201325D18042AFAD1604603683D
:10087C0085EA0303A3F10132DB431A4012F0803FF7
:10088C000ED003788B421ED04378421C8B421BD077
:10089C008378821C8B4217D0C378C21C8B4213D036
:1008AC00043C0430032CE2D85CB103788B4206D0B4
:1008BC00621E32B110F8013F013A8B42F9D130BCC3
:1008CC0070470020FBE702461046F8E710F0030FD4
:1008DC00014618BF00460BD108460B6801E050F8E2
:1008EC00043FA3F10132DB431A4012F0803FF6D0F3
:1008FC0003781BB110F8013F002BFBD1401A704755
:10090C0030B5054685B01C468E4651B100F096F8C0
:10091C00B0F1FF3F03D100238A2223602A6005B087
:10092C0030BD0DF10601724600F088F8F0E7C046C4
:10093C00134640F21C02C2F2000270B504460D468A
:10094C00106821462A46FFF7DBFF70BD2DE9F04FFA
:10095C0089B0984602900092129F0191002952D0C2
:10096C001368B8F1000F54D003930025019C2E4658
:10097C000DF1160B039B59460298D7F800A09A5913
:10098C003B46D7F80490FFF7BBFFB0F1FF3F2BD0ED
:10099C00C0EB080240458CBF00230123AA4234BFA0
:1009AC00002303F00103BBB1019B2D186BB1002890
:1009BC0007DD00221BF80230A35401329042F9DC0F
:1009CC002418009A136804331360039A935993B153
:1009DC0004364545CED303E0C7F800A0C7F8049011
:1009EC00284609B0BDE8F08F029A8A2305461360A9
:1009FC0000223A60F4E7019A0AB1009A13600023CE
:100A0C00013D3B60ECE7009B4FF0FF381B68039304
:100A1C00ABE74546E4E7C04670B5164640F21C020B
:100A2C0082B0C2F2000204460D46214610682A46E6
:100A3C0000933346FFF78AFF02B070BD40F21410EA
:100A4C0070B5C2F200000C4615461E46FFF73EFF7D
:100A5C00012824D940F2141041F6EC31C2F2000006
:100A6C00C0F6000100F08AF9F0B9002C44D07F2DBB
:100A7C003FD9A5F18003B3F5F06F3FD205F4F863CD
:100A8C0005F03F0202209B096FEA42626FEA836322
:100A9C006FEA526262706FEA9363237003E0002C7A
:100AAC002AD00120257070BD40F2141041F6F431AB
:100ABC00C2F20000C0F6000100F060F9002840F01E
:100ACC009180CCB12B0AD9B20029EAD001F12003D4
:100ADC0001F17F02DBB2D2B20F2B8CBF00230123BA
:100AEC001E2A98BF43F00103002B67D14FF0FF3053
:100AFC00D9E725700130D6E70020D4E7A5F50063CF
:100B0C00B3F5784FC0F0BB80A5F58033B3F5F81F73
:100B1C0022D205F4E01205F47C3321460420920C19
:100B2C001B0B6FEA02726FEA43636FEA127201F8F1
:100B3C00012B05F47C626FEA5363637005F03F038D
:100B4C0092096FEA43636FEA42626FEA53638B70F8
:100B5C006FEA52624A70A6E7A5F50013B3F1787FED
:100B6C0080F0B08005F0407205F47C032146120E33
:100B7C009B0C6FEA42726FEA43636FEA52726FEA40
:100B8C00536301F8012B05F47C62637005F47C332C
:100B9C009209481C1B0B6FEA42626FEA43636FEACF
:100BAC0052626FEA53634B7005F03F0342706FEA79
:100BBC0043636FEA53638370052074E7E8B2A0F1D6
:100BCC00400280F080037C2B8CBF00230123D2B227
:100BDC003E2A98BF43F00103002B87D0607002209F
:100BEC00217060E740F2141041F6FC31C2F20000B3
:100BFC00C0F6000100F0C2F8C0B9002C3FF47CAF85
:100C0C002B0AD9B200293FF44CAF01F15F03DBB2E0
:100C1C005D2B3FF66BAFEAB202F15F03DBB25D2BEB
:100C2C003FF664AF2170023062703CE740F2141062
:100C3C0041F60441C2F20000C0F6000100F09EF83B
:100C4C0000287FF42CAF002C3AD02B0A5FFA85FEDB
:100C5C00DDB2002D71D133686BB1214635601B2399
:100C6C00282201F8013B042062708C1C27334B7046
:100C7C0084F800E017E7012084F800E013E7A5F5FD
:100C8C005843B3F5006FFFF431AF05F470422146C1
:100C9C0005F47C630320120B9B096FEAC2626FEAB6
:100CAC0043636FEAD26201F8012B05F03F026FEA51
:100CBC00536363706FEA42626FEA52624A70F2E603
:100CCC000130F0E605F17C43B3F1F84FBFF40EAF01
:100CDC0005F0804205F07C532146920F1B0E6FEA03
:100CEC0082726FEA43636FEA92726FEA536301F8A0
:100CFC00012B05F47C62637005F47C03481C92099B
:100D0C009B0C441C6FEA42626FEA43636FEA5262C7
:100D1C006FEA53634B7005F47C331B0B6FEA436330
:100D2C006FEA5363437005F03F03627006206FEA6D
:100D3C0043636FEA5363A370B5E6A5F12103DBB2FD
:100D4C005D2B3FF6D3AEAEF12103DBB25D2B3FF64C
:100D5C00CDAE33687BB921460123242233600520B4
:100D6C001A3301F8013B273362708C1C4B702570D1
:100D7C0084F801E097E60220F9E7C04641EA000357
:100D8C00024613F0030F04D102680B689A4212D08A
:100D9C000246107820B917E012F8010F013198B112
:100DAC000B788342F8D0C01A704750F8042F51F8D2
:100DBC00043F9A42ECD1A2F10133D243134013F019
:100DCC00803FF2D00020EFE70B78ECE7002934D01D
:100DDC000123002210B488422CD301242407A14201
:100DEC0004D2814202D209011B01F8E7E400A142BE
:100DFC0004D2814202D249005B00F8E7884201D359
:100E0C00401A1A434C08A04202D3001B5C08224330
:100E1C008C08A04202D3001B9C082243CC08A042A1
:100E2C0002D3001BDC082243002803D01B0901D08D
:100E3C000909E3E7101C10BC704708B14FF0FF30F4
:100E4C0000F00AB80029F8D003B5FFF7C1FF0EBCBB
:100E5C004243891A1847C0467047C04610B500F087
:100E6C0085FA00F07FF900F0A3F900F041F900F0E9
:100E7C0003F900F01FF92248FFF780F92148FFF72A
:100E8C007DF900F0DFF9204B4E221A7000F066FA63
:100E9C0000F0ECF900F062FA1C48802100F09EFC96
:100EAC000028F9D0184B194893F9011089B200F0B9
:100EBC008DFC00F053FA1548202100F08FFC00281F
:100ECC00F9D0124800F086FC0F4CC1B221701048CA
:100EDC0049B2FFF715F90A48FFF750F994F90030B9
:100EEC004E2BCBD0084B93F9000000F0FFF90128F2
:100EFC00F8D10848FFF742F900F030FABEE7C046D7
:100F0C00001B00081E1B00080000002000480040C9
:100F1C002F1B0008441B00087047C046FEE7C04664
:100F2C00FEE7C046FEE7C046FEE7C0467047C04637
:100F3C007047C0467047C0467047C04610B54FF466
:100F4C00007000F0B7FA18B14FF4007000F0C0FA5E
:100F5C0010BDC04610B5012000F0ACFA50B1064AE5
:100F6C000648D36883F02003D360FFF707F901200C
:100F7C0000F0AEFA10BDC046000C0140531B000837
:100F8C00012110B5134800F0B7FB134A1368013365
:100F9C001360124A03EA0202002A05DA013A6FEAE8
:100FAC00C2726FEAD2720132012A09D120210C4897
:100FBC0000F0FAFB0A484FF4807100F0F5FB08E0F2
:100FCC000748202100F0F2FB05484FF4807100F037
:100FDC00EDFB10BD0004004020010020010000804A
:100FEC00000C0140012110B54FF0804000F084FB53
:100FFC000E4A5368013353600D4A03EA0202002A79
:10100C0005DA013A6FEAC2726FEAD2720132012A32
:10101C0005D108484FF4007100F0C6FB04E0054808
:10102C004FF4007100F0C2FB10BDC046200100203F
:10103C0001000080000C01400A2810B504460CD1B8
:10104C000C480D2100F0C2FB0A48802100F0C6FBC1
:10105C000028F9D007480A2101E00648E1B200F067
:10106C00B5FB0448802100F0B9FB0028F9D02046DC
:10107C0010BDC046003801401FB50D4C4FF4E13394
:10108C000093A3F5E133ADF80430ADF80630ADF8BC
:10109C000830ADF80C3020464FF00C036946ADF823
:1010AC000A3000F0A1FB2046012100F081FB1FBD9E
:1010BC00003801401FB50D4C4FF4E1330093A3F5FC
:1010CC00E133ADF80430ADF80630ADF80830ADF8CA
:1010DC000C3020464FF00C036946ADF80A3000F096
:1010EC0083FB2046012100F063FB1FBD004800403C
:1010FC0019492DE9F04144F61F63184E184C002590
:10110C008B804FF048030B80CD804D80304600F033
:10111C00E5F94FF001084FF060033046214623807B
:10112C00A4F80280E580258100F028FA30460821D9
:10113C0000F0D0FA30462146A4F80280E58000F099
:10114C006DFA3046082100F0CDFA3046414600F0E9
:10115C00B3FABDE8F081C046480100200008004009
:10116C003801002010B50420012100F0F1FB04200F
:10117C00012100F0DFFB0820012100F0DBFB012046
:10118C00014600F0D7FB01214FF4804000F0D2FB68
:10119C0001214FF4802000F0DBFB01214FF4805043
:1011AC0000F0C8FB4FF48040012100F0D1FB10BDD2
:1011BC002DE97F4FDFF888A0204E4FF0180903254A
:1011CC004FF0C003504603A90DF10808ADF80C30E0
:1011DC008DF80F908DF80E5000F092FA4FF40073CA
:1011EC0030464146ADF808304FF0040B4FF48064A4
:1011FC008DF80A508DF80B9000F082FA304641467B
:10120C00ADF808408DF80BB000F07AFAADF8044058
:10121C000DEB0B04504621468DF806508DF80790C7
:10122C0000F06EFA4FF4006350462146ADF80430DE
:10123C008DF807B000F064FABDE87F8F000801401C
:10124C00000C014010B50548FEF798FF044B05490A
:10125C001B880548CB8000F0E1F910BD641B000829
:10126C0002000020380100200008004010B506489C
:10127C00FEF784FF054B06495B880648CB8000F0DF
:10128C00CDF900F06BF810BD711B000802000020B6
:10129C00380100200008004070B50F4E0F4C104D67
:1012AC001048FEF76BFFB38821462846E38000F018
:1012BC00B5F900F053F800F051F80B48FEF75EFF5B
:1012CC00368821462846E68000F0A8F900F046F85A
:1012DC0000F044F8012070BD02000020380100200D
:1012EC0000080040801B0008641B00084F2810B544
:1012FC0014D002DC472815D108E0522802D0592816
:10130C0010D107E0114B4FF461720AE00F4B4FF410
:10131C00966206E00D4B40F20E6202E00B4B4FF46E
:10132C00E1621A80094C0A482188FEF7E9FE094956
:10133C0024880948CC8000F021F900F00FF800F067
:10134C000DF8FFF7A9FF0128FBD110BD2C010020DF
:10135C008C1B00083801002000080040024B00E004
:10136C00013B002BFCD17047A8137B003B4A82B099
:10137C00136843F0010313605168394B01EA03030E
:10138C005360136823F0847323F480331360136861
:10139C0023F480231360536823F4FE0353604FF44B
:1013AC001F039360A3F51F0301930093136843F489
:1013BC0080331360294B1B6803F400330093019BAB
:1013CC0001330193009B1BB9019BB3F5A06FF1D1C5
:1013DC00224B1B6813F4003318BF01230093009BAE
:1013EC00012B35D11F4A136843F0100313601368A7
:1013FC0023F003031360136843F002031360A2F598
:10140C0080525368536053685360536843F480634D
:10141C005360536823F47C135360536843F488136C
:10142C005360136843F0807313600C4A136813F015
:10143C00007FFAD0536823F003035360536843F0E2
:10144C0002035360054B5B6803F00C03082BF9D1C6
:10145C00054B4FF000629A6002B0704700100240DA
:10146C000000FFF80020024000ED00E0002103E046
:10147C000A4B5B584350043109480A4B42189A42B4
:10148C00F6D3094A02E0002342F8043B074B9A4288
:10149C00F9D3FFF76BFFFFF7E1FC70470C1C00085A
:1014AC000000002020010020200100205401002019
:1014BC00FEE70000054B1A685B69034001D1184632
:1014CC0003E010420CBF00200120704700040140D3
:1014DC00014B58617047C0460004014003889AB222
:1014EC00244B984212D003F5006398420ED0B0F111
:1014FC00804F0BD0A3F59833984207D003F5806347
:10150C00984203D003F58063984206D14FF68F734F
:10151C0002EA03034A8843EA0202174B98420AD0B4
:10152C0003F58063984206D04FF6FF4302EA0303AB
:10153C00CA8843EA020202808B8883850B88038564
:10154C000C4B98420FD003F5006398420BD003F577
:10155C004063984207D003F58063984203D003F5AB
:10156C008063984201D10B7A03864FF0010383828A
:10157C007047C046002C014000100040038CF0B5B1
:10158C0023F001031B041B0C03840C46018C838881
:10159C0022899DB2038B21F002019EB2638809045B
:1015AC001343090C9BB243EA010C1B4B278898424E
:1015BC000FD003F5006398420BD003F540639842BB
:1015CC0007D003F58063984203D003F580639842FB
:1015DC0016D163894FF6F7720CEA02021A434FF6E2
:1015EC00FB7302EA0303A2884FF6FF4143EA020CA5
:1015FC00E389A28905EA010113439BB243EA010581
:10160C004FF68C7306EA03033B4385800383E38820
:10161C008386A0F820C0F0BD002C0140038C70B56F
:10162C0023F010031B041B0C0384038C828823F00F
:10163C00200394B2028B1B0495B20A891B0C43EA5B
:10164C0002134A889BB243EA02131FFA83FC194B1C
:10165C000E88984203D003F5006398421BD14B8946
:10166C004FF67F720CEA020242EA03124FF6BF7386
:10167C0002EA03038A8843EA02131FFA83FC8A896D
:10168C004FF2FF3304EA030343EA8203CA899BB295
:10169C0043EA82039CB248F6FF4305EA030343EA9C
:1016AC0006239BB284800383CB880387A0F820C0D9
:1016BC0070BDC046002C014021B103889BB243F0A1
:1016CC00010304E0038823F001031B041B0C0380BB
:1016DC007047C046038B23F008031B041B0C1943F3
:1016EC0001837047038B23F400631B041B0C43EA38
:1016FC0001239BB203837047C94389B201827047AF
:10170C00F0B5CD780E8815F0100F18BF8B7805F05A
:10171C000F0718BF1F4316F0FF0F20D004684FF0BF
:10172C00000C012303FA0CF303EA0601994210D1D1
:10173C004FEA8C020F23934017FA02F224EA0303B8
:10174C00282D43EA020401D1416102E0482D08BF73
:10175C0001610CF1010CBCF1080FE2D10460FF2E09
:10176C0021D944684FF0000C01230CF1080293407E
:10177C0003EA0601994210D14FEA8C020F239340E1
:10178C0017FA02F224EA0303282D43EA020401D1DA
:10179C00416102E0482D08BF01610CF1010CBCF164
:1017AC00080FE1D14460F0BD0161704741617047A1
:1017BC0021B183899BB243F4005304E0838923F461
:1017CC0000531B041B0C83817047C046C905C90D0F
:1017DC00818070478088C005C00D7047038819420E
:1017EC000CBF002001207047038ACA8823F44053A1
:1017FC001B041B0C1343038282890B8930B50D46E5
:10180C00898822F4B0520B43698922F00C020B43F5
:10181C001204120C9BB213438381838AAA8923F48A
:10182C0040731B041B0C87B013430446838201A82E
:10183C0000F034F8184B29689C42A38908BF04981F
:10184C001BB218BF0398002B03DA192343434A0039
:10185C0002E0192343438A00B3FBF2F16420B1FB8D
:10186C00F0F31A01130900FB1311A3891BB2002B0F
:10187C0006DACB003233B3FBF0F303F0070305E0D9
:10188C000B013233B3FBF0F303F00F0343EA020115
:10189C008BB2238107B030BD0038014010B504462F
:1018AC001E48436803F00C03042B02D0082B14D100
:1018BC0001E01B4B12E043684268C3F38343991C5D
:1018CC0012F4803F01D1174B05E0436813F4003F3D
:1018DC0014BF154B124B4B4300E0144B0F482360C5
:1018EC0043681349C3F30313CB5C2268DA4062608C
:1018FC004368C3F30223CB5C32FA03F3A36043685F
:10190C00C3F3C223CB5CDA40E2604368C3F3813398
:10191C00C9180B7CB2FBF3F2226110BD001002401F
:10192C00001BB70000093D00808D5B0000127A009F
:10193C000800002021B1054A936940EA030303E043
:10194C00024A936923EA0003936170470010024036
:10195C0021B1054AD36940EA030303E0024AD36983
:10196C0023EA0003D361704700100240101C70473B
:10197C0054020008A8060008A80600086602000821
:10198C00A8060008A8060008A8060008A806000873
:10199C00A8060008A8060008700200088A020008C1
:1019AC00A80600088002000894020008A806000897
:1019BC00F6020008000300080003000800030008FA
:1019CC0000030008000300080003000800030008DF
:1019DC000003000800030008A8060008A806000879
:1019EC00A8060008A8060008A8060008A806000813
:1019FC00A8060008A8060008A80600085A03000854
:101A0C00A6030008A8060008A8060008A8060008F7
:101A1C00A8060008A8060008A8060008A8060008E2
:101A2C00A8060008A8060008A80600081C04000860
:101A3C00A8060008A8060008A80600086404000808
:101A4C00A806000838050008A8060008A806000823
:101A5C0070050008A8060008A8060008A8060008DB
:101A6C00A8060008A8060008A8060008A806000892
:101A7C00A8060008A8060008A80600085A030008D3
:101A8C00AE030008A8060008A8060008A80600086F
:101A9C0024030008AE030008A8060008A8060008E6
:101AAC002E030008A8060008EA0300082404000816
:101ABC004A04000850030008A80600086404000843
:101ACC00A806000840050008A8060008A80600089B
:101ADC004E02000820202020202020202020202022
:101AEC00202020203030303030303030303030302A
:101AFC00303030302D2D2D2D2D2D2D2D2D2D2D2DFE
:101B0C002D2D2D2D2D2D2D2D2D2D2D2D2D2D2D2DF9
:101B1C002D006D61696E207768696C652073746146
:101B2C0072740052656365697665642064617461E2
:101B3C002069732025630A006D61696E20776869DE
:101B4C006C6520656E640045585449305F495251AC
:101B5C0048616E646C6572006D6F746F72322063D5
:101B6C006C6F7365006D6F746F72322073656E737A
:101B7C00696E67006D6F746F7232206F70656E00E6
:101B8C00434352315F56616C203A2025640A0000B1
:101B9C0030313233343536373839616263646566D7
:101BAC000000000030313233343536373839414299
:101BBC00434445460000000062756720696E20763C
:101BCC00667072696E74663A206261642062617339
:101BDC0065000000286E756C6C2900004300000045
:101BEC00432D5554462D3800432D534A495300007C
:101BFC00432D4555434A5000432D4A49530000009C
:101C0C004E03D007DC05E8030000000001020304CA
:101C1C00010203040607080902040608200000203C
:101C2C0000000000000000000000000000000000A8
:101C3C000000000000000000000000000000000098
:101C4C00E81B00080000000000000000000000007D
:101C5C000000000000000000000000000000000078
:101C6C000000000000000000000000000000000068
:101C7C000000000000000000000000000000000058
:101C8C000000000000000000000000000000000048
:101C9C000000000000000000000000000000000038
:101CAC000000000000000000000000000000000028
:101CBC000000000000000000000000000000000018
:101CCC000000000000000000000000000000000008
:101CDC0000000000000000000000000000000000F8
:101CEC0000000000000000000000000000000000E8
:101CFC0000000000000000000000000000000000D8
:101D0C0000000000000000000000000000000000C7
:101D1C000100000043000000000000000000000073
:040000050800010CE2
:00000001FF
